{
  "contractName": "TimeVault",
  "abi": [
    {
      "inputs": [
        {
          "internalType": "uint256",
          "name": "_requiredApprovals",
          "type": "uint256"
        }
      ],
      "stateMutability": "nonpayable",
      "type": "constructor"
    },
    {
      "anonymous": false,
      "inputs": [
        {
          "indexed": false,
          "internalType": "address",
          "name": "admin",
          "type": "address"
        }
      ],
      "name": "AdminAssigned",
      "type": "event"
    },
    {
      "anonymous": false,
      "inputs": [
        {
          "indexed": false,
          "internalType": "address",
          "name": "admin",
          "type": "address"
        }
      ],
      "name": "AdminRevoked",
      "type": "event"
    },
    {
      "anonymous": false,
      "inputs": [
        {
          "indexed": false,
          "internalType": "uint256",
          "name": "documentId",
          "type": "uint256"
        },
        {
          "indexed": false,
          "internalType": "address",
          "name": "approver",
          "type": "address"
        }
      ],
      "name": "DocumentApproved",
      "type": "event"
    },
    {
      "anonymous": false,
      "inputs": [
        {
          "indexed": false,
          "internalType": "uint256",
          "name": "documentId",
          "type": "uint256"
        }
      ],
      "name": "DocumentCancelled",
      "type": "event"
    },
    {
      "anonymous": false,
      "inputs": [
        {
          "indexed": false,
          "internalType": "uint256",
          "name": "documentId",
          "type": "uint256"
        }
      ],
      "name": "DocumentExecuted",
      "type": "event"
    },
    {
      "anonymous": false,
      "inputs": [
        {
          "indexed": false,
          "internalType": "uint256",
          "name": "documentId",
          "type": "uint256"
        },
        {
          "indexed": false,
          "internalType": "uint256",
          "name": "newUnlockTime",
          "type": "uint256"
        }
      ],
      "name": "DocumentExtended",
      "type": "event"
    },
    {
      "anonymous": false,
      "inputs": [
        {
          "indexed": false,
          "internalType": "uint256",
          "name": "documentId",
          "type": "uint256"
        },
        {
          "indexed": false,
          "internalType": "string",
          "name": "ipfsHash",
          "type": "string"
        },
        {
          "indexed": false,
          "internalType": "uint256",
          "name": "unlockTime",
          "type": "uint256"
        },
        {
          "indexed": false,
          "internalType": "string",
          "name": "name",
          "type": "string"
        }
      ],
      "name": "DocumentLocked",
      "type": "event"
    },
    {
      "anonymous": false,
      "inputs": [
        {
          "indexed": false,
          "internalType": "uint256",
          "name": "documentId",
          "type": "uint256"
        }
      ],
      "name": "DocumentQueued",
      "type": "event"
    },
    {
      "anonymous": false,
      "inputs": [
        {
          "indexed": false,
          "internalType": "uint256",
          "name": "documentId",
          "type": "uint256"
        },
        {
          "indexed": false,
          "internalType": "address[]",
          "name": "newRecipients",
          "type": "address[]"
        }
      ],
      "name": "DocumentRecipientsUpdated",
      "type": "event"
    },
    {
      "anonymous": false,
      "inputs": [
        {
          "indexed": false,
          "internalType": "uint256",
          "name": "documentId",
          "type": "uint256"
        },
        {
          "indexed": false,
          "internalType": "address",
          "name": "rejectedBy",
          "type": "address"
        }
      ],
      "name": "DocumentRejected",
      "type": "event"
    },
    {
      "anonymous": false,
      "inputs": [
        {
          "indexed": false,
          "internalType": "uint256",
          "name": "documentId",
          "type": "uint256"
        }
      ],
      "name": "DocumentUnlocked",
      "type": "event"
    },
    {
      "anonymous": false,
      "inputs": [
        {
          "indexed": false,
          "internalType": "address",
          "name": "to",
          "type": "address"
        },
        {
          "indexed": false,
          "internalType": "uint256",
          "name": "amount",
          "type": "uint256"
        }
      ],
      "name": "FundsWithdrawn",
      "type": "event"
    },
    {
      "inputs": [
        {
          "internalType": "uint256",
          "name": "",
          "type": "uint256"
        }
      ],
      "name": "adminList",
      "outputs": [
        {
          "internalType": "address",
          "name": "",
          "type": "address"
        }
      ],
      "stateMutability": "view",
      "type": "function",
      "constant": true
    },
    {
      "inputs": [
        {
          "internalType": "uint256",
          "name": "",
          "type": "uint256"
        },
        {
          "internalType": "address",
          "name": "",
          "type": "address"
        }
      ],
      "name": "approvals",
      "outputs": [
        {
          "internalType": "bool",
          "name": "",
          "type": "bool"
        }
      ],
      "stateMutability": "view",
      "type": "function",
      "constant": true
    },
    {
      "inputs": [],
      "name": "documentCount",
      "outputs": [
        {
          "internalType": "uint256",
          "name": "",
          "type": "uint256"
        }
      ],
      "stateMutability": "view",
      "type": "function",
      "constant": true
    },
    {
      "inputs": [
        {
          "internalType": "uint256",
          "name": "",
          "type": "uint256"
        }
      ],
      "name": "documents",
      "outputs": [
        {
          "internalType": "string",
          "name": "ipfsHash",
          "type": "string"
        },
        {
          "internalType": "string",
          "name": "name",
          "type": "string"
        },
        {
          "internalType": "uint256",
          "name": "unlockTime",
          "type": "uint256"
        },
        {
          "internalType": "enum TimeVault.DocumentStatus",
          "name": "status",
          "type": "uint8"
        },
        {
          "internalType": "address",
          "name": "documentOwner",
          "type": "address"
        },
        {
          "internalType": "uint256",
          "name": "transactionTime",
          "type": "uint256"
        },
        {
          "internalType": "uint256",
          "name": "approvalCount",
          "type": "uint256"
        },
        {
          "internalType": "uint256",
          "name": "statusChangeTime",
          "type": "uint256"
        },
        {
          "internalType": "address",
          "name": "rejectedBy",
          "type": "address"
        }
      ],
      "stateMutability": "view",
      "type": "function",
      "constant": true
    },
    {
      "inputs": [
        {
          "internalType": "address",
          "name": "",
          "type": "address"
        }
      ],
      "name": "isAdmin",
      "outputs": [
        {
          "internalType": "bool",
          "name": "",
          "type": "bool"
        }
      ],
      "stateMutability": "view",
      "type": "function",
      "constant": true
    },
    {
      "inputs": [],
      "name": "owner",
      "outputs": [
        {
          "internalType": "address",
          "name": "",
          "type": "address"
        }
      ],
      "stateMutability": "view",
      "type": "function",
      "constant": true
    },
    {
      "inputs": [],
      "name": "paused",
      "outputs": [
        {
          "internalType": "bool",
          "name": "",
          "type": "bool"
        }
      ],
      "stateMutability": "view",
      "type": "function",
      "constant": true
    },
    {
      "inputs": [],
      "name": "requiredApprovals",
      "outputs": [
        {
          "internalType": "uint256",
          "name": "",
          "type": "uint256"
        }
      ],
      "stateMutability": "view",
      "type": "function",
      "constant": true
    },
    {
      "inputs": [
        {
          "internalType": "address",
          "name": "",
          "type": "address"
        },
        {
          "internalType": "uint256",
          "name": "",
          "type": "uint256"
        }
      ],
      "name": "userDocuments",
      "outputs": [
        {
          "internalType": "uint256",
          "name": "",
          "type": "uint256"
        }
      ],
      "stateMutability": "view",
      "type": "function",
      "constant": true
    },
    {
      "stateMutability": "payable",
      "type": "receive",
      "payable": true
    },
    {
      "inputs": [
        {
          "internalType": "string",
          "name": "ipfsHash",
          "type": "string"
        },
        {
          "internalType": "uint256",
          "name": "timeLock",
          "type": "uint256"
        },
        {
          "internalType": "address[]",
          "name": "recipients",
          "type": "address[]"
        },
        {
          "internalType": "string",
          "name": "name",
          "type": "string"
        }
      ],
      "name": "lockDocument",
      "outputs": [],
      "stateMutability": "nonpayable",
      "type": "function"
    },
    {
      "inputs": [
        {
          "internalType": "uint256",
          "name": "documentId",
          "type": "uint256"
        }
      ],
      "name": "approveDocument",
      "outputs": [],
      "stateMutability": "nonpayable",
      "type": "function"
    },
    {
      "inputs": [
        {
          "internalType": "uint256",
          "name": "documentId",
          "type": "uint256"
        }
      ],
      "name": "rejectDocument",
      "outputs": [],
      "stateMutability": "nonpayable",
      "type": "function"
    },
    {
      "inputs": [
        {
          "internalType": "uint256",
          "name": "documentId",
          "type": "uint256"
        }
      ],
      "name": "getDocumentStatus",
      "outputs": [
        {
          "internalType": "enum TimeVault.DocumentStatus",
          "name": "",
          "type": "uint8"
        }
      ],
      "stateMutability": "view",
      "type": "function",
      "constant": true
    },
    {
      "inputs": [
        {
          "internalType": "uint256",
          "name": "documentId",
          "type": "uint256"
        }
      ],
      "name": "unlockDocument",
      "outputs": [
        {
          "internalType": "string",
          "name": "",
          "type": "string"
        }
      ],
      "stateMutability": "nonpayable",
      "type": "function"
    },
    {
      "inputs": [
        {
          "internalType": "uint256",
          "name": "documentId",
          "type": "uint256"
        }
      ],
      "name": "cancelDocument",
      "outputs": [],
      "stateMutability": "nonpayable",
      "type": "function"
    },
    {
      "inputs": [
        {
          "internalType": "uint256",
          "name": "documentId",
          "type": "uint256"
        },
        {
          "internalType": "uint256",
          "name": "newTimeLock",
          "type": "uint256"
        }
      ],
      "name": "modifyTimeLock",
      "outputs": [],
      "stateMutability": "nonpayable",
      "type": "function"
    },
    {
      "inputs": [],
      "name": "pauseContract",
      "outputs": [],
      "stateMutability": "nonpayable",
      "type": "function"
    },
    {
      "inputs": [],
      "name": "unpauseContract",
      "outputs": [],
      "stateMutability": "nonpayable",
      "type": "function"
    },
    {
      "inputs": [
        {
          "internalType": "address",
          "name": "_admin",
          "type": "address"
        }
      ],
      "name": "assignAdmin",
      "outputs": [],
      "stateMutability": "nonpayable",
      "type": "function"
    },
    {
      "inputs": [
        {
          "internalType": "address",
          "name": "_admin",
          "type": "address"
        }
      ],
      "name": "revokeAdmin",
      "outputs": [],
      "stateMutability": "nonpayable",
      "type": "function"
    },
    {
      "inputs": [],
      "name": "getAdminCount",
      "outputs": [
        {
          "internalType": "uint256",
          "name": "",
          "type": "uint256"
        }
      ],
      "stateMutability": "view",
      "type": "function",
      "constant": true
    },
    {
      "inputs": [
        {
          "internalType": "uint256",
          "name": "index",
          "type": "uint256"
        }
      ],
      "name": "getAdminByIndex",
      "outputs": [
        {
          "internalType": "address",
          "name": "",
          "type": "address"
        }
      ],
      "stateMutability": "view",
      "type": "function",
      "constant": true
    },
    {
      "inputs": [],
      "name": "getOwner",
      "outputs": [
        {
          "internalType": "address",
          "name": "",
          "type": "address"
        }
      ],
      "stateMutability": "view",
      "type": "function",
      "constant": true
    },
    {
      "inputs": [
        {
          "internalType": "uint256",
          "name": "amount",
          "type": "uint256"
        }
      ],
      "name": "withdrawFunds",
      "outputs": [],
      "stateMutability": "nonpayable",
      "type": "function"
    },
    {
      "inputs": [],
      "name": "getBalance",
      "outputs": [
        {
          "internalType": "uint256",
          "name": "",
          "type": "uint256"
        }
      ],
      "stateMutability": "view",
      "type": "function",
      "constant": true
    },
    {
      "inputs": [],
      "name": "monitorActivity",
      "outputs": [
        {
          "internalType": "uint256",
          "name": "",
          "type": "uint256"
        }
      ],
      "stateMutability": "view",
      "type": "function",
      "constant": true
    },
    {
      "inputs": [
        {
          "internalType": "uint256",
          "name": "documentId",
          "type": "uint256"
        }
      ],
      "name": "getDocument",
      "outputs": [
        {
          "internalType": "string",
          "name": "ipfsHash",
          "type": "string"
        },
        {
          "internalType": "uint256",
          "name": "unlockTime",
          "type": "uint256"
        },
        {
          "internalType": "address[]",
          "name": "recipients",
          "type": "address[]"
        },
        {
          "internalType": "enum TimeVault.DocumentStatus",
          "name": "status",
          "type": "uint8"
        },
        {
          "internalType": "uint256",
          "name": "approvalCount",
          "type": "uint256"
        },
        {
          "internalType": "string",
          "name": "name",
          "type": "string"
        }
      ],
      "stateMutability": "view",
      "type": "function",
      "constant": true
    },
    {
      "inputs": [],
      "name": "getDocumentCount",
      "outputs": [
        {
          "internalType": "uint256",
          "name": "",
          "type": "uint256"
        }
      ],
      "stateMutability": "view",
      "type": "function",
      "constant": true
    },
    {
      "inputs": [
        {
          "internalType": "address",
          "name": "user",
          "type": "address"
        }
      ],
      "name": "getUserDocuments",
      "outputs": [
        {
          "internalType": "uint256[]",
          "name": "",
          "type": "uint256[]"
        }
      ],
      "stateMutability": "view",
      "type": "function",
      "constant": true
    },
    {
      "inputs": [
        {
          "internalType": "uint256",
          "name": "documentId",
          "type": "uint256"
        }
      ],
      "name": "getTransactionTime",
      "outputs": [
        {
          "internalType": "uint256",
          "name": "",
          "type": "uint256"
        }
      ],
      "stateMutability": "view",
      "type": "function",
      "constant": true
    },
    {
      "inputs": [
        {
          "internalType": "uint256",
          "name": "documentId",
          "type": "uint256"
        }
      ],
      "name": "getDocumentName",
      "outputs": [
        {
          "internalType": "string",
          "name": "",
          "type": "string"
        }
      ],
      "stateMutability": "view",
      "type": "function",
      "constant": true
    },
    {
      "inputs": [
        {
          "internalType": "uint256",
          "name": "documentId",
          "type": "uint256"
        }
      ],
      "name": "getStatusChangeTime",
      "outputs": [
        {
          "internalType": "uint256",
          "name": "",
          "type": "uint256"
        }
      ],
      "stateMutability": "view",
      "type": "function",
      "constant": true
    },
    {
      "inputs": [
        {
          "internalType": "uint256",
          "name": "documentId",
          "type": "uint256"
        }
      ],
      "name": "getDocumentRejector",
      "outputs": [
        {
          "internalType": "address",
          "name": "",
          "type": "address"
        }
      ],
      "stateMutability": "view",
      "type": "function",
      "constant": true
    }
  ],
  "bytecode": "0x60806040526000600760146101000a81548160ff0219169083151502179055503480156200002c57600080fd5b5060405162004d6238038062004d62833981810160405281019062000052919062000173565b33600760006101000a81548173ffffffffffffffffffffffffffffffffffffffff021916908373ffffffffffffffffffffffffffffffffffffffff160217905550806006819055506001600260003373ffffffffffffffffffffffffffffffffffffffff1673ffffffffffffffffffffffffffffffffffffffff16815260200190815260200160002060006101000a81548160ff0219169083151502179055506004339080600181540180825580915050600190039060005260206000200160009091909190916101000a81548173ffffffffffffffffffffffffffffffffffffffff021916908373ffffffffffffffffffffffffffffffffffffffff16021790555050620001c3565b6000815190506200016d81620001a9565b92915050565b6000602082840312156200018657600080fd5b600062000196848285016200015c565b91505092915050565b6000819050919050565b620001b4816200019f565b8114620001c057600080fd5b50565b614b8f80620001d36000396000f3fe6080604052600436106101f25760003560e01c806381f93dbb1161010d578063b0975a47116100a0578063c6b547e61161006f578063c6b547e614610765578063d6e98720146107a2578063df17319f146107cb578063e3660cdf146107f4578063fadc6bc61461081d576101f9565b8063b0975a47146106a3578063b33712c5146106cc578063bdccca72146106e3578063c2ed2b0514610720576101f9565b806390a4b162116100dc57806390a4b162146105d357806399c1aadc14610610578063a5b16b2e1461063b578063ab2850da14610666576101f9565b806381f93dbb14610515578063893d20e8146105525780638b7bf3eb1461057d5780638da5cb5b146105a8576101f9565b80633da7d2ed116101855780635c975abb116101545780635c975abb14610447578063623785c114610472578063700651b1146104af5780637b10becb146104ec576101f9565b80633da7d2ed146103885780633f9b250a146103b1578063439766ce146103f3578063577a1b921461040a576101f9565b80631fed681e116101c15780631fed681e146102ba57806324d7806c146102f75780632d345670146103345780633d1c22731461035d576101f9565b80630fa16e4c146101fe57806311117fc81461022957806312065fe014610266578063155dd5ee14610291576101f9565b366101f957005b600080fd5b34801561020a57600080fd5b5061021361085a565b6040516102209190614711565b60405180910390f35b34801561023557600080fd5b50610250600480360381019061024b9190613940565b610864565b60405161025d9190614282565b60405180910390f35b34801561027257600080fd5b5061027b6108a3565b6040516102889190614711565b60405180910390f35b34801561029d57600080fd5b506102b860048036038101906102b39190613940565b6108ab565b005b3480156102c657600080fd5b506102e160048036038101906102dc9190613940565b610a4d565b6040516102ee9190614282565b60405180910390f35b34801561030357600080fd5b5061031e60048036038101906103199190613830565b610a8c565b60405161032b91906142e8565b60405180910390f35b34801561034057600080fd5b5061035b60048036038101906103569190613830565b610aac565b005b34801561036957600080fd5b50610372610f11565b60405161037f9190614711565b60405180910390f35b34801561039457600080fd5b506103af60048036038101906103aa9190613830565b610f1b565b005b3480156103bd57600080fd5b506103d860048036038101906103d39190613940565b61112d565b6040516103ea969594939291906143db565b60405180910390f35b3480156103ff57600080fd5b5061040861132c565b005b34801561041657600080fd5b50610431600480360381019061042c9190613859565b6113d9565b60405161043e9190614711565b60405180910390f35b34801561045357600080fd5b5061045c61140a565b60405161046991906142e8565b60405180910390f35b34801561047e57600080fd5b5061049960048036038101906104949190613940565b61141d565b6040516104a69190614282565b60405180910390f35b3480156104bb57600080fd5b506104d660048036038101906104d19190613940565b6114d2565b6040516104e39190614303565b60405180910390f35b3480156104f857600080fd5b50610513600480360381019061050e9190613940565b6114fe565b005b34801561052157600080fd5b5061053c60048036038101906105379190613940565b611790565b6040516105499190614711565b60405180910390f35b34801561055e57600080fd5b506105676117af565b6040516105749190614282565b60405180910390f35b34801561058957600080fd5b506105926117d9565b60405161059f9190614711565b60405180910390f35b3480156105b457600080fd5b506105bd6117e6565b6040516105ca9190614282565b60405180910390f35b3480156105df57600080fd5b506105fa60048036038101906105f59190613830565b61180c565b60405161060791906142c6565b60405180910390f35b34801561061c57600080fd5b506106256118a3565b6040516106329190614711565b60405180910390f35b34801561064757600080fd5b506106506118a9565b60405161065d9190614711565b60405180910390f35b34801561067257600080fd5b5061068d60048036038101906106889190613969565b6118af565b60405161069a91906142e8565b60405180910390f35b3480156106af57600080fd5b506106ca60048036038101906106c59190613940565b6118de565b005b3480156106d857600080fd5b506106e1611c09565b005b3480156106ef57600080fd5b5061070a60048036038101906107059190613940565b611cb6565b604051610717919061431e565b60405180910390f35b34801561072c57600080fd5b5061074760048036038101906107429190613940565b612053565b60405161075c99989796959493929190614340565b60405180910390f35b34801561077157600080fd5b5061078c60048036038101906107879190613940565b6121fe565b604051610799919061431e565b60405180910390f35b3480156107ae57600080fd5b506107c960048036038101906107c49190613895565b6122a5565b005b3480156107d757600080fd5b506107f260048036038101906107ed9190613940565b612657565b005b34801561080057600080fd5b5061081b600480360381019061081691906139a5565b612d52565b005b34801561082957600080fd5b50610844600480360381019061083f9190613940565b613402565b6040516108519190614711565b60405180910390f35b6000600554905090565b6004818154811061087457600080fd5b906000526020600020016000915054906101000a900473ffffffffffffffffffffffffffffffffffffffff1681565b600047905090565b600260003373ffffffffffffffffffffffffffffffffffffffff1673ffffffffffffffffffffffffffffffffffffffff16815260200190815260200160002060009054906101000a900460ff16610937576040517f08c379a000000000000000000000000000000000000000000000000000000000815260040161092e90614531565b60405180910390fd5b600760149054906101000a900460ff1615610987576040517f08c379a000000000000000000000000000000000000000000000000000000000815260040161097e90614651565b60405180910390fd5b804710156109ca576040517f08c379a00000000000000000000000000000000000000000000000000000000081526004016109c1906144d1565b60405180910390fd5b3373ffffffffffffffffffffffffffffffffffffffff166108fc829081150290604051600060405180830381858888f19350505050158015610a10573d6000803e3d6000fd5b507feaff4b37086828766ad3268786972c0cd24259d4c87a80f9d3963a3c3d999b0d3382604051610a4292919061429d565b60405180910390a150565b600080600083815260200190815260200160002060080160009054906101000a900473ffffffffffffffffffffffffffffffffffffffff169050919050565b60026020528060005260406000206000915054906101000a900460ff1681565b600760009054906101000a900473ffffffffffffffffffffffffffffffffffffffff1673ffffffffffffffffffffffffffffffffffffffff163373ffffffffffffffffffffffffffffffffffffffff1614610b3c576040517f08c379a0000000000000000000000000000000000000000000000000000000008152600401610b3390614491565b60405180910390fd5b600260008273ffffffffffffffffffffffffffffffffffffffff1673ffffffffffffffffffffffffffffffffffffffff16815260200190815260200160002060009054906101000a900460ff16610bc8576040517f08c379a0000000000000000000000000000000000000000000000000000000008152600401610bbf90614551565b60405180910390fd5b600760009054906101000a900473ffffffffffffffffffffffffffffffffffffffff1673ffffffffffffffffffffffffffffffffffffffff168173ffffffffffffffffffffffffffffffffffffffff161415610c59576040517f08c379a0000000000000000000000000000000000000000000000000000000008152600401610c50906146b1565b60405180910390fd5b6000600260008373ffffffffffffffffffffffffffffffffffffffff1673ffffffffffffffffffffffffffffffffffffffff16815260200190815260200160002060006101000a81548160ff02191690831515021790555060005b600480549050811015610ed6578173ffffffffffffffffffffffffffffffffffffffff1660048281548110610d12577f4e487b7100000000000000000000000000000000000000000000000000000000600052603260045260246000fd5b9060005260206000200160009054906101000a900473ffffffffffffffffffffffffffffffffffffffff1673ffffffffffffffffffffffffffffffffffffffff161415610ec35760046001600480549050610d6d91906148ec565b81548110610da4577f4e487b7100000000000000000000000000000000000000000000000000000000600052603260045260246000fd5b9060005260206000200160009054906101000a900473ffffffffffffffffffffffffffffffffffffffff1660048281548110610e09577f4e487b7100000000000000000000000000000000000000000000000000000000600052603260045260246000fd5b9060005260206000200160006101000a81548173ffffffffffffffffffffffffffffffffffffffff021916908373ffffffffffffffffffffffffffffffffffffffff1602179055506004805480610e89577f4e487b7100000000000000000000000000000000000000000000000000000000600052603160045260246000fd5b6001900381819060005260206000200160006101000a81549073ffffffffffffffffffffffffffffffffffffffff02191690559055610ed6565b8080610ece90614a01565b915050610cb4565b507f631ff1c4e1a02c54b480a34b810e03bcee61fe38efcb243930a7f820914923e281604051610f069190614282565b60405180910390a150565b6000600554905090565b600760009054906101000a900473ffffffffffffffffffffffffffffffffffffffff1673ffffffffffffffffffffffffffffffffffffffff163373ffffffffffffffffffffffffffffffffffffffff1614610fab576040517f08c379a0000000000000000000000000000000000000000000000000000000008152600401610fa290614491565b60405180910390fd5b600260008273ffffffffffffffffffffffffffffffffffffffff1673ffffffffffffffffffffffffffffffffffffffff16815260200190815260200160002060009054906101000a900460ff1615611038576040517f08c379a000000000000000000000000000000000000000000000000000000000815260040161102f90614511565b60405180910390fd5b6001600260008373ffffffffffffffffffffffffffffffffffffffff1673ffffffffffffffffffffffffffffffffffffffff16815260200190815260200160002060006101000a81548160ff0219169083151502179055506004819080600181540180825580915050600190039060005260206000200160009091909190916101000a81548173ffffffffffffffffffffffffffffffffffffffff021916908373ffffffffffffffffffffffffffffffffffffffff1602179055507fdb33970bd9bc1a413c7dac3b21e061709de094761c9396ef6d49b9ebdb793933816040516111229190614282565b60405180910390a150565b606060006060600080606060008060008981526020019081526020016000209050806000018160020154826003018360040160009054906101000a900460ff16846006015485600101858054611182906149cf565b80601f01602080910402602001604051908101604052809291908181526020018280546111ae906149cf565b80156111fb5780601f106111d0576101008083540402835291602001916111fb565b820191906000526020600020905b8154815290600101906020018083116111de57829003601f168201915b505050505095508380548060200260200160405190810160405280929190818152602001828054801561128357602002820191906000526020600020905b8160009054906101000a900473ffffffffffffffffffffffffffffffffffffffff1673ffffffffffffffffffffffffffffffffffffffff1681526020019060010190808311611239575b50505050509350808054611296906149cf565b80601f01602080910402602001604051908101604052809291908181526020018280546112c2906149cf565b801561130f5780601f106112e45761010080835404028352916020019161130f565b820191906000526020600020905b8154815290600101906020018083116112f257829003601f168201915b505050505090509650965096509650965096505091939550919395565b600760009054906101000a900473ffffffffffffffffffffffffffffffffffffffff1673ffffffffffffffffffffffffffffffffffffffff163373ffffffffffffffffffffffffffffffffffffffff16146113bc576040517f08c379a00000000000000000000000000000000000000000000000000000000081526004016113b390614491565b60405180910390fd5b6001600760146101000a81548160ff021916908315150217905550565b600160205281600052604060002081815481106113f557600080fd5b90600052602060002001600091509150505481565b600760149054906101000a900460ff1681565b60006004805490508210611466576040517f08c379a000000000000000000000000000000000000000000000000000000000815260040161145d90614631565b60405180910390fd5b600482815481106114a0577f4e487b7100000000000000000000000000000000000000000000000000000000600052603260045260246000fd5b9060005260206000200160009054906101000a900473ffffffffffffffffffffffffffffffffffffffff169050919050565b600080600083815260200190815260200160002060040160009054906101000a900460ff169050919050565b600260003373ffffffffffffffffffffffffffffffffffffffff1673ffffffffffffffffffffffffffffffffffffffff16815260200190815260200160002060009054906101000a900460ff1661158a576040517f08c379a000000000000000000000000000000000000000000000000000000000815260040161158190614531565b60405180910390fd5b600760149054906101000a900460ff16156115da576040517f08c379a00000000000000000000000000000000000000000000000000000000081526004016115d190614651565b60405180910390fd5b600080600083815260200190815260200160002090506000600381111561162a577f4e487b7100000000000000000000000000000000000000000000000000000000600052602160045260246000fd5b8160040160009054906101000a900460ff166003811115611674577f4e487b7100000000000000000000000000000000000000000000000000000000600052602160045260246000fd5b146116b4576040517f08c379a00000000000000000000000000000000000000000000000000000000081526004016116ab90614471565b60405180910390fd5b60038160040160006101000a81548160ff02191690836003811115611702577f4e487b7100000000000000000000000000000000000000000000000000000000600052602160045260246000fd5b0217905550428160070181905550338160080160006101000a81548173ffffffffffffffffffffffffffffffffffffffff021916908373ffffffffffffffffffffffffffffffffffffffff1602179055507f6ebdff754aad08d3abc617e82f1237dca16e659f8db01211be90211db5a62164823360405161178492919061472c565b60405180910390a15050565b6000806000838152602001908152602001600020600701549050919050565b6000600760009054906101000a900473ffffffffffffffffffffffffffffffffffffffff16905090565b6000600480549050905090565b600760009054906101000a900473ffffffffffffffffffffffffffffffffffffffff1681565b6060600160008373ffffffffffffffffffffffffffffffffffffffff1673ffffffffffffffffffffffffffffffffffffffff16815260200190815260200160002080548060200260200160405190810160405280929190818152602001828054801561189757602002820191906000526020600020905b815481526020019060010190808311611883575b50505050509050919050565b60065481565b60055481565b60036020528160005260406000206020528060005260406000206000915091509054906101000a900460ff1681565b600260003373ffffffffffffffffffffffffffffffffffffffff1673ffffffffffffffffffffffffffffffffffffffff16815260200190815260200160002060009054906101000a900460ff1661196a576040517f08c379a000000000000000000000000000000000000000000000000000000000815260040161196190614531565b60405180910390fd5b600760149054906101000a900460ff16156119ba576040517f08c379a00000000000000000000000000000000000000000000000000000000081526004016119b190614651565b60405180910390fd5b6000806000838152602001908152602001600020905060006003811115611a0a577f4e487b7100000000000000000000000000000000000000000000000000000000600052602160045260246000fd5b8160040160009054906101000a900460ff166003811115611a54577f4e487b7100000000000000000000000000000000000000000000000000000000600052602160045260246000fd5b14611a94576040517f08c379a0000000000000000000000000000000000000000000000000000000008152600401611a8b906145f1565b60405180910390fd5b6003600083815260200190815260200160002060003373ffffffffffffffffffffffffffffffffffffffff1673ffffffffffffffffffffffffffffffffffffffff16815260200190815260200160002060009054906101000a900460ff1615611b32576040517f08c379a0000000000000000000000000000000000000000000000000000000008152600401611b29906144f1565b60405180910390fd5b60016003600084815260200190815260200160002060003373ffffffffffffffffffffffffffffffffffffffff1673ffffffffffffffffffffffffffffffffffffffff16815260200190815260200160002060006101000a81548160ff021916908315150217905550806006016000815480929190611bb090614a01565b91905055507feb515de70b5e2623866de285cd98dd8e7ca7b975492ed341f097fb4888542f8f8233604051611be692919061472c565b60405180910390a1600654816006015410611c0557611c0482613421565b5b5050565b600760009054906101000a900473ffffffffffffffffffffffffffffffffffffffff1673ffffffffffffffffffffffffffffffffffffffff163373ffffffffffffffffffffffffffffffffffffffff1614611c99576040517f08c379a0000000000000000000000000000000000000000000000000000000008152600401611c9090614491565b60405180910390fd5b6000600760146101000a81548160ff021916908315150217905550565b6060600760149054906101000a900460ff1615611d08576040517f08c379a0000000000000000000000000000000000000000000000000000000008152600401611cff90614651565b60405180910390fd5b600080600084815260200190815260200160002090508060020154421015611d65576040517f08c379a0000000000000000000000000000000000000000000000000000000008152600401611d5c906145d1565b60405180910390fd5b60016003811115611d9f577f4e487b7100000000000000000000000000000000000000000000000000000000600052602160045260246000fd5b8160040160009054906101000a900460ff166003811115611de9577f4e487b7100000000000000000000000000000000000000000000000000000000600052602160045260246000fd5b14611e29576040517f08c379a0000000000000000000000000000000000000000000000000000000008152600401611e2090614691565b60405180910390fd5b6000805b8260030180549050811015611ef2573373ffffffffffffffffffffffffffffffffffffffff16836003018281548110611e8f577f4e487b7100000000000000000000000000000000000000000000000000000000600052603260045260246000fd5b9060005260206000200160009054906101000a900473ffffffffffffffffffffffffffffffffffffffff1673ffffffffffffffffffffffffffffffffffffffff161415611edf5760019150611ef2565b8080611eea90614a01565b915050611e2d565b5080611f33576040517f08c379a0000000000000000000000000000000000000000000000000000000008152600401611f2a90614671565b60405180910390fd5b60028260040160006101000a81548160ff02191690836003811115611f81577f4e487b7100000000000000000000000000000000000000000000000000000000600052602160045260246000fd5b02179055507f802578a54ab1d334906a0729a5fafcd6ecadcf8d93c043a338ead5b1f0ff4e4b84604051611fb59190614711565b60405180910390a1816000018054611fcc906149cf565b80601f0160208091040260200160405190810160405280929190818152602001828054611ff8906149cf565b80156120455780601f1061201a57610100808354040283529160200191612045565b820191906000526020600020905b81548152906001019060200180831161202857829003601f168201915b505050505092505050919050565b6000602052806000526040600020600091509050806000018054612076906149cf565b80601f01602080910402602001604051908101604052809291908181526020018280546120a2906149cf565b80156120ef5780601f106120c4576101008083540402835291602001916120ef565b820191906000526020600020905b8154815290600101906020018083116120d257829003601f168201915b505050505090806001018054612104906149cf565b80601f0160208091040260200160405190810160405280929190818152602001828054612130906149cf565b801561217d5780601f106121525761010080835404028352916020019161217d565b820191906000526020600020905b81548152906001019060200180831161216057829003601f168201915b5050505050908060020154908060040160009054906101000a900460ff16908060040160019054906101000a900473ffffffffffffffffffffffffffffffffffffffff16908060050154908060060154908060070154908060080160009054906101000a900473ffffffffffffffffffffffffffffffffffffffff16905089565b60606000808381526020019081526020016000206001018054612220906149cf565b80601f016020809104026020016040519081016040528092919081815260200182805461224c906149cf565b80156122995780601f1061226e57610100808354040283529160200191612299565b820191906000526020600020905b81548152906001019060200180831161227c57829003601f168201915b50505050509050919050565b600760149054906101000a900460ff16156122f5576040517f08c379a00000000000000000000000000000000000000000000000000000000081526004016122ec90614651565b60405180910390fd5b428311612337576040517f08c379a000000000000000000000000000000000000000000000000000000000815260040161232e906144b1565b60405180910390fd5b600082511161237b576040517f08c379a000000000000000000000000000000000000000000000000000000000815260040161237290614611565b60405180910390fd5b6005600081548092919061238e90614a01565b9190505550600080600060055481526020019081526020016000209050848160000190805190602001906123c39291906135db565b50838160020181905550828160030190805190602001906123e5929190613661565b5060008160040160006101000a81548160ff02191690836003811115612434577f4e487b7100000000000000000000000000000000000000000000000000000000600052602160045260246000fd5b0217905550338160040160016101000a81548173ffffffffffffffffffffffffffffffffffffffff021916908373ffffffffffffffffffffffffffffffffffffffff16021790555042816005018190555060008160060181905550818160010190805190602001906124a79291906135db565b507fdc8bbe385053ba73f4dc7dd10abda38ea1faf8184c0f30779999b0a5b08221276005548686856040516124df9493929190614755565b60405180910390a17fdf4209b711a2351447f191eee039f879438c687c966264b1932b82ab343ac6d36005546040516125189190614711565b60405180910390a160005b83518110156125e75760016000858381518110612569577f4e487b7100000000000000000000000000000000000000000000000000000000600052603260045260246000fd5b602002602001015173ffffffffffffffffffffffffffffffffffffffff1673ffffffffffffffffffffffffffffffffffffffff168152602001908152602001600020600554908060018154018082558091505060019003906000526020600020016000909190919091505580806125df90614a01565b915050612523565b50600160003373ffffffffffffffffffffffffffffffffffffffff1673ffffffffffffffffffffffffffffffffffffffff16815260200190815260200160002060055490806001815401808255809150506001900390600052602060002001600090919091909150555050505050565b600760149054906101000a900460ff16156126a7576040517f08c379a000000000000000000000000000000000000000000000000000000000815260040161269e90614651565b60405180910390fd5b806000806000838152602001908152602001600020604051806101400160405290816000820180546126d8906149cf565b80601f0160208091040260200160405190810160405280929190818152602001828054612704906149cf565b80156127515780601f1061272657610100808354040283529160200191612751565b820191906000526020600020905b81548152906001019060200180831161273457829003601f168201915b5050505050815260200160018201805461276a906149cf565b80601f0160208091040260200160405190810160405280929190818152602001828054612796906149cf565b80156127e35780601f106127b8576101008083540402835291602001916127e3565b820191906000526020600020905b8154815290600101906020018083116127c657829003601f168201915b50505050508152602001600282015481526020016003820180548060200260200160405190810160405280929190818152602001828054801561287b57602002820191906000526020600020905b8160009054906101000a900473ffffffffffffffffffffffffffffffffffffffff1673ffffffffffffffffffffffffffffffffffffffff1681526020019060010190808311612831575b505050505081526020016004820160009054906101000a900460ff1660038111156128cf577f4e487b7100000000000000000000000000000000000000000000000000000000600052602160045260246000fd5b6003811115612907577f4e487b7100000000000000000000000000000000000000000000000000000000600052602160045260246000fd5b81526020016004820160019054906101000a900473ffffffffffffffffffffffffffffffffffffffff1673ffffffffffffffffffffffffffffffffffffffff1673ffffffffffffffffffffffffffffffffffffffff1681526020016005820154815260200160068201548152602001600782015481526020016008820160009054906101000a900473ffffffffffffffffffffffffffffffffffffffff1673ffffffffffffffffffffffffffffffffffffffff1673ffffffffffffffffffffffffffffffffffffffff168152505090506000805b826060015151811015612a7c573373ffffffffffffffffffffffffffffffffffffffff1683606001518281518110612a3c577f4e487b7100000000000000000000000000000000000000000000000000000000600052603260045260246000fd5b602002602001015173ffffffffffffffffffffffffffffffffffffffff161415612a695760019150612a7c565b8080612a7490614a01565b9150506129db565b508080612ad65750600760009054906101000a900473ffffffffffffffffffffffffffffffffffffffff1673ffffffffffffffffffffffffffffffffffffffff163373ffffffffffffffffffffffffffffffffffffffff16145b612b15576040517f08c379a0000000000000000000000000000000000000000000000000000000008152600401612b0c906146d1565b60405180910390fd5b6000806000868152602001908152602001600020905080600201544210612b71576040517f08c379a0000000000000000000000000000000000000000000000000000000008152600401612b68906145b1565b60405180910390fd5b60006003811115612bab577f4e487b7100000000000000000000000000000000000000000000000000000000600052602160045260246000fd5b8160040160009054906101000a900460ff166003811115612bf5577f4e487b7100000000000000000000000000000000000000000000000000000000600052602160045260246000fd5b1480612c82575060016003811115612c36577f4e487b7100000000000000000000000000000000000000000000000000000000600052602160045260246000fd5b8160040160009054906101000a900460ff166003811115612c80577f4e487b7100000000000000000000000000000000000000000000000000000000600052602160045260246000fd5b145b612cc1576040517f08c379a0000000000000000000000000000000000000000000000000000000008152600401612cb890614571565b60405180910390fd5b60038160040160006101000a81548160ff02191690836003811115612d0f577f4e487b7100000000000000000000000000000000000000000000000000000000600052602160045260246000fd5b02179055507f7b4845702fcfeef348208aa5c3ef0909d12e56c50c288cdba03c5462cfd921b585604051612d439190614711565b60405180910390a15050505050565b600760149054906101000a900460ff1615612da2576040517f08c379a0000000000000000000000000000000000000000000000000000000008152600401612d9990614651565b60405180910390fd5b81600080600083815260200190815260200160002060405180610140016040529081600082018054612dd3906149cf565b80601f0160208091040260200160405190810160405280929190818152602001828054612dff906149cf565b8015612e4c5780601f10612e2157610100808354040283529160200191612e4c565b820191906000526020600020905b815481529060010190602001808311612e2f57829003601f168201915b50505050508152602001600182018054612e65906149cf565b80601f0160208091040260200160405190810160405280929190818152602001828054612e91906149cf565b8015612ede5780601f10612eb357610100808354040283529160200191612ede565b820191906000526020600020905b815481529060010190602001808311612ec157829003601f168201915b505050505081526020016002820154815260200160038201805480602002602001604051908101604052809291908181526020018280548015612f7657602002820191906000526020600020905b8160009054906101000a900473ffffffffffffffffffffffffffffffffffffffff1673ffffffffffffffffffffffffffffffffffffffff1681526020019060010190808311612f2c575b505050505081526020016004820160009054906101000a900460ff166003811115612fca577f4e487b7100000000000000000000000000000000000000000000000000000000600052602160045260246000fd5b6003811115613002577f4e487b7100000000000000000000000000000000000000000000000000000000600052602160045260246000fd5b81526020016004820160019054906101000a900473ffffffffffffffffffffffffffffffffffffffff1673ffffffffffffffffffffffffffffffffffffffff1673ffffffffffffffffffffffffffffffffffffffff1681526020016005820154815260200160068201548152602001600782015481526020016008820160009054906101000a900473ffffffffffffffffffffffffffffffffffffffff1673ffffffffffffffffffffffffffffffffffffffff1673ffffffffffffffffffffffffffffffffffffffff168152505090506000805b826060015151811015613177573373ffffffffffffffffffffffffffffffffffffffff1683606001518281518110613137577f4e487b7100000000000000000000000000000000000000000000000000000000600052603260045260246000fd5b602002602001015173ffffffffffffffffffffffffffffffffffffffff1614156131645760019150613177565b808061316f90614a01565b9150506130d6565b5080806131d15750600760009054906101000a900473ffffffffffffffffffffffffffffffffffffffff1673ffffffffffffffffffffffffffffffffffffffff163373ffffffffffffffffffffffffffffffffffffffff16145b613210576040517f08c379a0000000000000000000000000000000000000000000000000000000008152600401613207906146d1565b60405180910390fd5b428411613252576040517f08c379a000000000000000000000000000000000000000000000000000000000815260040161324990614451565b60405180910390fd5b60008060008781526020019081526020016000209050600060038111156132a2577f4e487b7100000000000000000000000000000000000000000000000000000000600052602160045260246000fd5b8160040160009054906101000a900460ff1660038111156132ec577f4e487b7100000000000000000000000000000000000000000000000000000000600052602160045260246000fd5b148061337957506001600381111561332d577f4e487b7100000000000000000000000000000000000000000000000000000000600052602160045260246000fd5b8160040160009054906101000a900460ff166003811115613377577f4e487b7100000000000000000000000000000000000000000000000000000000600052602160045260246000fd5b145b6133b8576040517f08c379a00000000000000000000000000000000000000000000000000000000081526004016133af90614591565b60405180910390fd5b8481600201819055507fb8122af314e669dc35abc8b48cfc9db0e5950f19900d60fbf68370ec43d6a48f86866040516133f29291906147a8565b60405180910390a1505050505050565b6000806000838152602001908152602001600020600501549050919050565b6000806000838152602001908152602001600020905060006003811115613471577f4e487b7100000000000000000000000000000000000000000000000000000000600052602160045260246000fd5b8160040160009054906101000a900460ff1660038111156134bb577f4e487b7100000000000000000000000000000000000000000000000000000000600052602160045260246000fd5b146134fb576040517f08c379a00000000000000000000000000000000000000000000000000000000081526004016134f2906145f1565b60405180910390fd5b60065481600601541015613544576040517f08c379a000000000000000000000000000000000000000000000000000000000815260040161353b906146f1565b60405180910390fd5b60018160040160006101000a81548160ff02191690836003811115613592577f4e487b7100000000000000000000000000000000000000000000000000000000600052602160045260246000fd5b02179055504281600701819055507f3068585e120a8ac52245819417fbf44a07a4423d2e5d2b6d77c4e585d7d043ff826040516135cf9190614711565b60405180910390a15050565b8280546135e7906149cf565b90600052602060002090601f0160209004810192826136095760008555613650565b82601f1061362257805160ff1916838001178555613650565b82800160010185558215613650579182015b8281111561364f578251825591602001919060010190613634565b5b50905061365d91906136eb565b5090565b8280548282559060005260206000209081019282156136da579160200282015b828111156136d95782518260006101000a81548173ffffffffffffffffffffffffffffffffffffffff021916908373ffffffffffffffffffffffffffffffffffffffff16021790555091602001919060010190613681565b5b5090506136e791906136eb565b5090565b5b808211156137045760008160009055506001016136ec565b5090565b600061371b61371684614802565b6147d1565b9050808382526020820190508285602086028201111561373a57600080fd5b60005b8581101561376a578161375088826137b2565b84526020840193506020830192505060018101905061373d565b5050509392505050565b60006137876137828461482e565b6147d1565b90508281526020810184848401111561379f57600080fd5b6137aa84828561498d565b509392505050565b6000813590506137c181614b2b565b92915050565b600082601f8301126137d857600080fd5b81356137e8848260208601613708565b91505092915050565b600082601f83011261380257600080fd5b8135613812848260208601613774565b91505092915050565b60008135905061382a81614b42565b92915050565b60006020828403121561384257600080fd5b6000613850848285016137b2565b91505092915050565b6000806040838503121561386c57600080fd5b600061387a858286016137b2565b925050602061388b8582860161381b565b9150509250929050565b600080600080608085870312156138ab57600080fd5b600085013567ffffffffffffffff8111156138c557600080fd5b6138d1878288016137f1565b94505060206138e28782880161381b565b935050604085013567ffffffffffffffff8111156138ff57600080fd5b61390b878288016137c7565b925050606085013567ffffffffffffffff81111561392857600080fd5b613934878288016137f1565b91505092959194509250565b60006020828403121561395257600080fd5b60006139608482850161381b565b91505092915050565b6000806040838503121561397c57600080fd5b600061398a8582860161381b565b925050602061399b858286016137b2565b9150509250929050565b600080604083850312156139b857600080fd5b60006139c68582860161381b565b92505060206139d78582860161381b565b9150509250929050565b60006139ed8383613a11565b60208301905092915050565b6000613a058383614264565b60208301905092915050565b613a1a81614920565b82525050565b613a2981614920565b82525050565b6000613a3a8261487e565b613a4481856148b9565b9350613a4f8361485e565b8060005b83811015613a80578151613a6788826139e1565b9750613a728361489f565b925050600181019050613a53565b5085935050505092915050565b6000613a9882614889565b613aa281856148ca565b9350613aad8361486e565b8060005b83811015613ade578151613ac588826139f9565b9750613ad0836148ac565b925050600181019050613ab1565b5085935050505092915050565b613af481614932565b82525050565b613b038161497b565b82525050565b6000613b1482614894565b613b1e81856148db565b9350613b2e81856020860161499c565b613b3781614b06565b840191505092915050565b6000613b4f6022836148db565b91507f4e65772054696d654c6f636b206d75737420626520696e20746865206675747560008301527f72650000000000000000000000000000000000000000000000000000000000006020830152604082019050919050565b6000613bb56025836148db565b91507f4f6e6c792071756575656420646f63756d656e74732063616e2062652072656a60008301527f65637465640000000000000000000000000000000000000000000000000000006020830152604082019050919050565b6000613c1b6026836148db565b91507f4f6e6c7920746865206f776e65722063616e20706572666f726d20746869732060008301527f616374696f6e00000000000000000000000000000000000000000000000000006020830152604082019050919050565b6000613c81601e836148db565b91507f54696d654c6f636b206d75737420626520696e207468652066757475726500006000830152602082019050919050565b6000613cc16014836148db565b91507f496e73756666696369656e742062616c616e63650000000000000000000000006000830152602082019050919050565b6000613d016028836148db565b91507f41646d696e2068617320616c726561647920617070726f76656420746869732060008301527f646f63756d656e740000000000000000000000000000000000000000000000006020830152604082019050919050565b6000613d676010836148db565b91507f416c726561647920616e2061646d696e000000000000000000000000000000006000830152602082019050919050565b6000613da76025836148db565b91507f4f6e6c7920616e2061646d696e2063616e20706572666f726d2074686973206160008301527f6374696f6e0000000000000000000000000000000000000000000000000000006020830152604082019050919050565b6000613e0d600c836148db565b91507f4e6f7420616e2061646d696e00000000000000000000000000000000000000006000830152602082019050919050565b6000613e4d601b836148db565b91507f43616e6e6f742063616e63656c207468697320646f63756d656e7400000000006000830152602082019050919050565b6000613e8d602e836148db565b91507f43616e6e6f74206d6f6469667920612063616e63656c6c6564206f7220756e6c60008301527f6f636b656420646f63756d656e740000000000000000000000000000000000006020830152604082019050919050565b6000613ef3602f836148db565b91507f446f63756d656e7420697320616c726561647920756e6c6f636b6564206f722060008301527f74696d65206861732070617373656400000000000000000000000000000000006020830152604082019050919050565b6000613f596018836148db565b91507f446f63756d656e74206973207374696c6c206c6f636b656400000000000000006000830152602082019050919050565b6000613f996021836148db565b91507f446f63756d656e74206973206e6f7420696e206120717565756564207374617460008301527f65000000000000000000000000000000000000000000000000000000000000006020830152604082019050919050565b6000613fff601f836148db565b91507f526563697069656e7473206c6973742063616e6e6f7420626520656d707479006000830152602082019050919050565b600061403f6013836148db565b91507f496e646578206f7574206f6620626f756e6473000000000000000000000000006000830152602082019050919050565b600061407f6012836148db565b91507f436f6e74726163742069732070617573656400000000000000000000000000006000830152602082019050919050565b60006140bf602e836148db565b91507f596f7520617265206e6f7420617574686f72697a656420746f2061636365737360008301527f207468697320646f63756d656e740000000000000000000000000000000000006020830152604082019050919050565b60006141256021836148db565b91507f446f63756d656e74206973206e6f7420696e2061206c6f636b6564207374617460008301527f65000000000000000000000000000000000000000000000000000000000000006020830152604082019050919050565b600061418b6026836148db565b91507f43616e6e6f74207265766f6b6520746865206f776e657227732061646d696e2060008301527f72696768747300000000000000000000000000000000000000000000000000006020830152604082019050919050565b60006141f1600e836148db565b91507f4e6f7420617574686f72697a65640000000000000000000000000000000000006000830152602082019050919050565b60006142316014836148db565b91507f4e6f7420656e6f75676820617070726f76616c730000000000000000000000006000830152602082019050919050565b61426d81614971565b82525050565b61427c81614971565b82525050565b60006020820190506142976000830184613a20565b92915050565b60006040820190506142b26000830185613a20565b6142bf6020830184614273565b9392505050565b600060208201905081810360008301526142e08184613a8d565b905092915050565b60006020820190506142fd6000830184613aeb565b92915050565b60006020820190506143186000830184613afa565b92915050565b600060208201905081810360008301526143388184613b09565b905092915050565b600061012082019050818103600083015261435b818c613b09565b9050818103602083015261436f818b613b09565b905061437e604083018a614273565b61438b6060830189613afa565b6143986080830188613a20565b6143a560a0830187614273565b6143b260c0830186614273565b6143bf60e0830185614273565b6143cd610100830184613a20565b9a9950505050505050505050565b600060c08201905081810360008301526143f58189613b09565b90506144046020830188614273565b81810360408301526144168187613a2f565b90506144256060830186613afa565b6144326080830185614273565b81810360a08301526144448184613b09565b9050979650505050505050565b6000602082019050818103600083015261446a81613b42565b9050919050565b6000602082019050818103600083015261448a81613ba8565b9050919050565b600060208201905081810360008301526144aa81613c0e565b9050919050565b600060208201905081810360008301526144ca81613c74565b9050919050565b600060208201905081810360008301526144ea81613cb4565b9050919050565b6000602082019050818103600083015261450a81613cf4565b9050919050565b6000602082019050818103600083015261452a81613d5a565b9050919050565b6000602082019050818103600083015261454a81613d9a565b9050919050565b6000602082019050818103600083015261456a81613e00565b9050919050565b6000602082019050818103600083015261458a81613e40565b9050919050565b600060208201905081810360008301526145aa81613e80565b9050919050565b600060208201905081810360008301526145ca81613ee6565b9050919050565b600060208201905081810360008301526145ea81613f4c565b9050919050565b6000602082019050818103600083015261460a81613f8c565b9050919050565b6000602082019050818103600083015261462a81613ff2565b9050919050565b6000602082019050818103600083015261464a81614032565b9050919050565b6000602082019050818103600083015261466a81614072565b9050919050565b6000602082019050818103600083015261468a816140b2565b9050919050565b600060208201905081810360008301526146aa81614118565b9050919050565b600060208201905081810360008301526146ca8161417e565b9050919050565b600060208201905081810360008301526146ea816141e4565b9050919050565b6000602082019050818103600083015261470a81614224565b9050919050565b60006020820190506147266000830184614273565b92915050565b60006040820190506147416000830185614273565b61474e6020830184613a20565b9392505050565b600060808201905061476a6000830187614273565b818103602083015261477c8186613b09565b905061478b6040830185614273565b818103606083015261479d8184613b09565b905095945050505050565b60006040820190506147bd6000830185614273565b6147ca6020830184614273565b9392505050565b6000604051905081810181811067ffffffffffffffff821117156147f8576147f7614ad7565b5b8060405250919050565b600067ffffffffffffffff82111561481d5761481c614ad7565b5b602082029050602081019050919050565b600067ffffffffffffffff82111561484957614848614ad7565b5b601f19601f8301169050602081019050919050565b6000819050602082019050919050565b6000819050602082019050919050565b600081519050919050565b600081519050919050565b600081519050919050565b6000602082019050919050565b6000602082019050919050565b600082825260208201905092915050565b600082825260208201905092915050565b600082825260208201905092915050565b60006148f782614971565b915061490283614971565b92508282101561491557614914614a4a565b5b828203905092915050565b600061492b82614951565b9050919050565b60008115159050919050565b600081905061494c82614b17565b919050565b600073ffffffffffffffffffffffffffffffffffffffff82169050919050565b6000819050919050565b60006149868261493e565b9050919050565b82818337600083830152505050565b60005b838110156149ba57808201518184015260208101905061499f565b838111156149c9576000848401525b50505050565b600060028204905060018216806149e757607f821691505b602082108114156149fb576149fa614aa8565b5b50919050565b6000614a0c82614971565b91507fffffffffffffffffffffffffffffffffffffffffffffffffffffffffffffffff821415614a3f57614a3e614a4a565b5b600182019050919050565b7f4e487b7100000000000000000000000000000000000000000000000000000000600052601160045260246000fd5b7f4e487b7100000000000000000000000000000000000000000000000000000000600052602160045260246000fd5b7f4e487b7100000000000000000000000000000000000000000000000000000000600052602260045260246000fd5b7f4e487b7100000000000000000000000000000000000000000000000000000000600052604160045260246000fd5b6000601f19601f8301169050919050565b60048110614b2857614b27614a79565b5b50565b614b3481614920565b8114614b3f57600080fd5b50565b614b4b81614971565b8114614b5657600080fd5b5056fea2646970667358221220946cd27344e45f5b958f7ba4ea2d46974ea95f2ae284cb885d6c1b5a269af0ce64736f6c63430008000033",
  "immutableReferences": {},
  "source": "// SPDX-License-Identifier: MIT\r\npragma solidity ^0.8.0;\r\n\r\ncontract TimeVault {\r\n    enum DocumentStatus { Queued, Locked, Unlocked, Cancelled }\r\n\r\n    struct Document {\r\n        string ipfsHash;\r\n        string name;\r\n        uint unlockTime;\r\n        address[] recipients;\r\n        DocumentStatus status;\r\n        address documentOwner;\r\n        uint transactionTime;\r\n        uint approvalCount;\r\n        uint statusChangeTime;  // Add this field\r\n        address rejectedBy;  // New field to store who rejected the document\r\n    }\r\n\r\n    mapping(uint => Document) public documents;\r\n    mapping(address => uint[]) public userDocuments;\r\n    mapping(address => bool) public isAdmin;\r\n    mapping(uint => mapping(address => bool)) public approvals;\r\n    address[] public adminList;  // Store all admin addresses\r\n    uint public documentCount;\r\n    uint public requiredApprovals;\r\n    address public owner;\r\n    bool public paused = false;\r\n\r\n    event DocumentLocked(uint documentId, string ipfsHash, uint unlockTime,string name);\r\n    event DocumentExtended(uint documentId, uint newUnlockTime);\r\n    event DocumentUnlocked(uint documentId);\r\n    event FundsWithdrawn(address to, uint amount);\r\n    event DocumentRecipientsUpdated(uint documentId, address[] newRecipients);\r\n    event DocumentCancelled(uint documentId);\r\n    event DocumentQueued(uint documentId);\r\n    event DocumentExecuted(uint documentId);\r\n    event DocumentApproved(uint documentId, address approver);\r\n    event DocumentRejected(uint documentId, address rejectedBy);\r\n    event AdminAssigned(address admin);\r\n    event AdminRevoked(address admin);\r\n\r\n    constructor(uint _requiredApprovals) {\r\n        owner = msg.sender;\r\n        requiredApprovals = _requiredApprovals;\r\n        isAdmin[msg.sender] = true;\r\n        adminList.push(msg.sender); // Add owner as the first admin\r\n    }\r\n\r\n    modifier onlyOwner() {\r\n        require(msg.sender == owner, \"Only the owner can perform this action\");\r\n        _;\r\n    }\r\n\r\n    modifier onlyAdmin() {\r\n        require(isAdmin[msg.sender], \"Only an admin can perform this action\");\r\n        _;\r\n    }\r\n\r\n    modifier onlyRecipientOrOwner(uint documentId) {\r\n        Document memory doc = documents[documentId];\r\n        bool isRecipient = false;\r\n        for (uint i = 0; i < doc.recipients.length; i++) {\r\n            if (doc.recipients[i] == msg.sender) {\r\n                isRecipient = true;\r\n                break;\r\n            }\r\n        }\r\n        require(isRecipient || msg.sender == owner, \"Not authorized\");\r\n        _;\r\n    }\r\n\r\n    modifier whenNotPaused() {\r\n        require(!paused, \"Contract is paused\");\r\n        _;\r\n    }\r\n\r\n    function lockDocument(\r\n        string memory ipfsHash,\r\n        uint timeLock,\r\n        address[] memory recipients,\r\n        string memory name //Accept the document name \r\n    ) public whenNotPaused {\r\n        require(timeLock > block.timestamp, \"TimeLock must be in the future\");\r\n        require(recipients.length > 0, \"Recipients list cannot be empty\");\r\n\r\n        documentCount++;\r\n        Document storage newDoc = documents[documentCount];\r\n        newDoc.ipfsHash = ipfsHash;\r\n        newDoc.unlockTime = timeLock;\r\n        newDoc.recipients = recipients;\r\n        newDoc.status = DocumentStatus.Queued;\r\n        newDoc.documentOwner = msg.sender;\r\n        newDoc.transactionTime = block.timestamp;\r\n        newDoc.approvalCount = 0;\r\n         newDoc.name = name; // Set document name\r\n\r\n        emit DocumentLocked(documentCount, ipfsHash, timeLock,name);\r\n        emit DocumentQueued(documentCount);\r\n\r\n        for (uint i = 0; i < recipients.length; i++) {\r\n            userDocuments[recipients[i]].push(documentCount);\r\n        }\r\n\r\n        userDocuments[msg.sender].push(documentCount);\r\n    }\r\n\r\n    function approveDocument(uint documentId) public onlyAdmin whenNotPaused {\r\n        Document storage doc = documents[documentId];\r\n        require(doc.status == DocumentStatus.Queued, \"Document is not in a queued state\");\r\n        require(!approvals[documentId][msg.sender], \"Admin has already approved this document\");\r\n\r\n        approvals[documentId][msg.sender] = true;\r\n        doc.approvalCount++;\r\n        emit DocumentApproved(documentId, msg.sender);\r\n\r\n        if (doc.approvalCount >= requiredApprovals) {\r\n            executeDocument(documentId);\r\n        }\r\n    }\r\n\r\n    function rejectDocument(uint documentId) public onlyAdmin whenNotPaused {\r\n    Document storage doc = documents[documentId];\r\n    require(doc.status == DocumentStatus.Queued, \"Only queued documents can be rejected\");\r\n\r\n    // Change the document status to Cancelled\r\n    doc.status = DocumentStatus.Cancelled;\r\n    doc.statusChangeTime = block.timestamp; // Update the status change time\r\n    doc.rejectedBy = msg.sender; // Store who rejected the document\r\n\r\n    // Emit an event for rejection\r\n    emit DocumentRejected(documentId, msg.sender);\r\n}\r\n\r\n\r\n\r\n    function executeDocument(uint documentId) internal {\r\n        Document storage doc = documents[documentId];\r\n        require(doc.status == DocumentStatus.Queued, \"Document is not in a queued state\");\r\n        require(doc.approvalCount >= requiredApprovals, \"Not enough approvals\");\r\n\r\n        doc.status = DocumentStatus.Locked;\r\n        doc.statusChangeTime = block.timestamp;  // Update status change time\r\n        emit DocumentExecuted(documentId);\r\n    }\r\n\r\n    function getDocumentStatus(uint documentId) public view returns (DocumentStatus) {\r\n        return documents[documentId].status;\r\n    }\r\n\r\n    function unlockDocument(uint documentId) public whenNotPaused returns (string memory) {\r\n        Document storage doc = documents[documentId];\r\n        require(block.timestamp >= doc.unlockTime, \"Document is still locked\");\r\n        require(doc.status == DocumentStatus.Locked, \"Document is not in a locked state\");\r\n\r\n        bool isRecipient = false;\r\n        for (uint i = 0; i < doc.recipients.length; i++) {\r\n            if (doc.recipients[i] == msg.sender) {\r\n                isRecipient = true;\r\n                break;\r\n            }\r\n        }\r\n        require(isRecipient, \"You are not authorized to access this document\");\r\n\r\n        doc.status = DocumentStatus.Unlocked;\r\n        emit DocumentUnlocked(documentId);\r\n\r\n        return doc.ipfsHash;\r\n    }\r\n\r\n    function cancelDocument(uint documentId) public whenNotPaused onlyRecipientOrOwner(documentId) {\r\n        Document storage doc = documents[documentId];\r\n        require(block.timestamp < doc.unlockTime, \"Document is already unlocked or time has passed\");\r\n        require(doc.status == DocumentStatus.Queued || doc.status == DocumentStatus.Locked, \"Cannot cancel this document\");\r\n\r\n        doc.status = DocumentStatus.Cancelled;\r\n        emit DocumentCancelled(documentId);\r\n    }\r\n\r\n    function modifyTimeLock(uint documentId, uint newTimeLock) public whenNotPaused onlyRecipientOrOwner(documentId) {\r\n        require(newTimeLock > block.timestamp, \"New TimeLock must be in the future\");\r\n        Document storage doc = documents[documentId];\r\n        require(doc.status == DocumentStatus.Queued || doc.status == DocumentStatus.Locked, \"Cannot modify a cancelled or unlocked document\");\r\n        doc.unlockTime = newTimeLock;\r\n        emit DocumentExtended(documentId, newTimeLock);\r\n    }\r\n\r\n    function pauseContract() public onlyOwner {\r\n        paused = true;\r\n    }\r\n\r\n    function unpauseContract() public onlyOwner {\r\n        paused = false;\r\n    }\r\n\r\n    function assignAdmin(address _admin) public onlyOwner {\r\n        require(!isAdmin[_admin], \"Already an admin\");\r\n        isAdmin[_admin] = true;\r\n        adminList.push(_admin); // Add the new admin to the list\r\n        emit AdminAssigned(_admin);\r\n    }\r\n\r\n    function revokeAdmin(address _admin) public onlyOwner {\r\n        require(isAdmin[_admin], \"Not an admin\");\r\n        require(_admin != owner, \"Cannot revoke the owner's admin rights\"); // Prevent revoking the owner\r\n        isAdmin[_admin] = false;\r\n\r\n        // Remove admin from adminList\r\n        for (uint i = 0; i < adminList.length; i++) {\r\n            if (adminList[i] == _admin) {\r\n                adminList[i] = adminList[adminList.length - 1]; // Replace with the last element\r\n                adminList.pop(); // Remove the last element\r\n                break;\r\n            }\r\n        }\r\n        emit AdminRevoked(_admin);\r\n    }\r\n\r\n    function getAdminCount() public view returns (uint) {\r\n        return adminList.length;\r\n    }\r\n\r\n    function getAdminByIndex(uint index) public view returns (address) {\r\n        require(index < adminList.length, \"Index out of bounds\");\r\n        return adminList[index];\r\n    }\r\n\r\n    function getOwner() public view returns (address) {\r\n        return owner;\r\n    }\r\n\r\n    function withdrawFunds(uint amount) public onlyAdmin whenNotPaused {\r\n        require(address(this).balance >= amount, \"Insufficient balance\");\r\n        payable(msg.sender).transfer(amount);\r\n        emit FundsWithdrawn(msg.sender, amount);\r\n    }\r\n\r\n    function getBalance() public view returns (uint) {\r\n        return address(this).balance;\r\n    }\r\n\r\n    function monitorActivity() public view returns (uint) {\r\n        return documentCount;\r\n    }\r\n\r\n    function getDocument(uint documentId) public view returns (\r\n        string memory ipfsHash,\r\n        uint unlockTime,\r\n        address[] memory recipients,\r\n        DocumentStatus status,\r\n        uint approvalCount,\r\n        string memory name  // Return the name\r\n    ) {\r\n        Document storage doc = documents[documentId];\r\n        return (doc.ipfsHash, doc.unlockTime, doc.recipients, doc.status, doc.approvalCount, doc.name);  // Return the name\r\n    }\r\n\r\n    function getDocumentCount() public view returns (uint) {\r\n        return documentCount;\r\n    }\r\n\r\n    function getUserDocuments(address user) public view returns (uint[] memory) {\r\n        return userDocuments[user];\r\n    }\r\n\r\n    function getTransactionTime(uint documentId) public view returns (uint) {\r\n    return documents[documentId].transactionTime;\r\n}\r\n\r\n // Add the new function to get document name\r\n    function getDocumentName(uint256 documentId) public view returns (string memory) {\r\n        return documents[documentId].name;\r\n    }\r\n\r\nfunction getStatusChangeTime(uint documentId) public view returns (uint) {\r\n    return documents[documentId].statusChangeTime;\r\n}\r\n\r\nfunction getDocumentRejector(uint documentId) public view returns (address) {\r\n    return documents[documentId].rejectedBy;\r\n}\r\n\r\n\r\n    receive() external payable {}\r\n}\r\n",
  "sourcePath": "D:\\BlockchainAssignmentCoding\\contracts\\TimeVault.sol",
  "compiler": {
    "name": "solc",
    "version": "0.8.0+commit.c7dfd78e.Emscripten.clang"
  },
  "schemaVersion": "3.4.16",
  "updatedAt": "2024-09-22T06:13:15.589Z",
  "networkType": "ethereum",
  "devdoc": {
    "kind": "dev",
    "methods": {},
    "version": 1
  },
  "userdoc": {
    "kind": "user",
    "methods": {},
    "version": 1
  }
}